:100000000C9456000C9475000C9475000C947500BB
:100010000C9475000C9475000C9475000C9475008C
:100020000C9475000C9475000C9475000C9475007C
:100030000C9475000C9475000C9475000C9475006C
:100040000C9475000C9475000C9475000C9475005C
:100050000C9475000C9475000C9475000C9475004C
:100060000C9475000C9475000C9475000C9475003C
:100070000C9475000C9475000C9475000C9475002C
:100080000C9475000C9475000C947500C800CF009A
:10009000D600E500F400020110011E015E015101CD
:1000A0005E0153015E0156015E01590111241FBE1C
:1000B000CFEFD0E4DEBFCDBF11E0A0E0B1E0E4E2DD
:1000C000F3E000E00BBF02C007900D92AE30B10725
:1000D000D9F721E0AEE0B1E001C01D92A031B20736
:1000E000E1F70E946A010C9490010C940000CF93F8
:1000F000DF9300D01F92CDB7DEB789837B836A83FD
:1001000089818A3031F48A819B81BC018DE00E9413
:10011000770080EC90E0FC018081882F90E0807275
:100120009927892BB1F386EC90E02981FC0120838B
:1001300080E090E00F900F900F90DF91CF910895A5
:10014000CF93DF9300D0CDB7DEB71A82198285E254
:1001500090E0FC018081898380E290E0FC01808155
:1001600080958A8380910E0190910F01CC01A0E0CF
:10017000B0E040E050E027E030E0841B950B28170A
:10018000390708F469C08A5B9F4FFC010C94870112
:1001900081E090E090930F0180930E016DC082E0AA
:1001A00090E090930F0180930E0166C08A81882FA2
:1001B00090E081709927892B09F453C083E090E087
:1001C00090930F0180930E014CC08A81882F90E09C
:1001D00081709927892B09F046C084E090E09093C4
:1001E0000F0180930E013FC08A81882F90E08170BB
:1001F0009927892BD1F185E090E090930F018093AE
:100200000E0133C08A81882F90E081709927892B55
:1002100071F586E090E090930F0180930E0127C066
:100220008A81882F90E081709927892B11F187E0CE
:1002300090E090930F0180930E011BC08A81882F5C
:1002400090E081709927892BB1F482E090E090933F
:100250000F0180930E010FC010920F0110920E013A
:100260000BC0000009C0000007C0000005C000006E
:1002700003C0000001C0000080910E0190910F01A9
:10028000CC01A0E0B0E040E050E027E030E0841B8B
:10029000950B2817390780F0825B9F4FFC010C9467
:1002A000870119820CC08BE1898309C089E38983A6
:1002B00006C08CE2898303C0000001C0000085E213
:1002C00090E02981FC01208300000F900F90DF91C6
:1002D000CF910895CF93DF93CDB7DEB781E290E061
:1002E000FC01108282E290E02FEFFC01208384E287
:1002F00090E02FEFFC01208385E290E0FC0110826A
:1003000010920F0110920E010E94A000FDCFEE0F7F
:10031000FF1F0024001C0BBE0790F691E02D0994EE
:04032000F894FFCF7F
:0E032400000000020000000077000000000052
:00000001FF
